:020000040800F2
:10000000E007002089010008A7270008511900080F
:10001000A527000837030008812B00080000000016
:10002000000000000000000000000000752900082A
:100030004503000800000000732900087729000824
:10004000A3010008A3010008A3010008A301000800
:10005000A3010008A3010008A3010008A3010008F0
:10006000A3010008A3010008A3010008A3010008E0
:10007000A3010008A3010008A3010008A3010008D0
:1000800039030008A3010008A3010008A301000828
:10009000A3010008A3010008A3010008A3010008B0
:1000A000A3010008A3010008A3010008A3010008A0
:1000B000A3010008A3010008D9290008611900085C
:1000C00055190008A3010008A3010008A3010008B6
:1000D000A3010008A3010008A3010008A301000870
:1000E000A3010008A3010008A301000800F002F822
:1000F00000F03AF80AA090E8000C82448344AAF188
:100100000107DA4501D100F02FF8AFF2090EBAE885
:100110000F0013F0010F18BFFB1A43F0010318473B
:100120003C3100005C310000103A24BF78C878C12F
:10013000FAD8520724BF30C830C144BF04680C60ED
:10014000704700000023002400250026103A28BF35
:1001500078C1FBD8520728BF30C148BF0B60704739
:100160001FB51FBD10B510BD00F0ACF81146FFF76C
:10017000F7FF02F017FD00F0CAF803B4FFF7F2FF33
:1001800003BC00F0D1F80000094880470948004747
:10019000FEE7FEE7FEE7FEE7FEE7FEE7FEE7FEE737
:1001A000FEE7FEE704480549054A064B7047000094
:1001B000D7290008ED000008E0010020E00700203A
:1001C000E0030020E003002010B5203AC0F00B80CF
:1001D000B1E81850203AA0E81850B1E81850A0E84B
:1001E0001850BFF4F5AF5FEA027C24BFB1E81850A5
:1001F000A0E8185044BF18C918C0BDE810405FEA15
:10020000827C24BF51F8043B40F8043B08BF704790
:10021000D20728BF31F8023B48BF11F8012B28BF95
:1002200020F8023B48BF00F8012B70474FF0000256
:100230000429C0F0128010F0030C00F01B80CCF1F8
:10024000040CBCF1020F18BF00F8012BA8BF20F866
:10025000022BA1EB0C0100F00DB85FEAC17C24BFBA
:1002600000F8012B00F8012B48BF00F8012B704764
:100270004FF0000200B5134694469646203922BF3F
:10028000A0E80C50A0E80C50B1F12001BFF4F7AF8A
:10029000090728BFA0E80C5048BF0CC05DF804EB6C
:1002A000890028BF40F8042B08BF704748BF20F8DA
:1002B000022B11F0804F18BF00F8012B70477047D8
:1002C00070477047754600F02BF8AE46050069464A
:1002D000534620F00700854618B020B5FFF762FFAF
:1002E000BDE820404FF000064FF000074FF0000837
:1002F0004FF0000B21F00701AC46ACE8C009ACE8B8
:10030000C009ACE8C009ACE8C0098D46704710B51B
:100310000446AFF300802046BDE81040FFF72DBF34
:10032000004870478001002001491820ABBEFEE75D
:10033000260002007047FEE7014800F057B80000B1
:1003400064000020704772B6FEE7000010B590F818
:1003500021100024022903D00421816301243DE0FF
:1003600001680A6822F00E020A6001680A6822F039
:1003700001020A601A4A0168914201D1012121E07B
:10038000174A1432914201D110211BE0144A28323D
:10039000914201D1891515E0114A3C32914201D1B7
:1003A00089140FE00E4A5032914202D14FF480314D
:1003B00008E00B4A6432914202D14FF4801101E00F
:1003C0004FF08071064A083A5160012180F82110EF
:1003D000002180F82010416B01B18847204610BDF4
:1003E0000800024090F82100704700002DE9F05FFE
:1003F000C16B0C6801680B68D0F840C0042202FA97
:100400000CF2494DDFF824A1494E4A4FDFF828B1DC
:10041000DFF828E122422CD05A072AD50A68920632
:1004200003D40A6822F004020A600168A94201D1DB
:10043000042219E0514501D1402215E0B14202D118
:100440004FF4806210E0B94202D14FF480420BE0D9
:10045000594502D14FF4802206E0714502D14FF494
:10046000800201E04FF080622F4908394A60C16A7A
:100470003BE04FF0020808FA0CF818EA040F4FF0BE
:1004800000094FF0010235D05FEA837832D50B685E
:100490009B0605D40B6823F00A030B6080F821202B
:1004A0000168A94201D1022219E0514501D120225F
:1004B00015E0B14202D14FF4007210E0B94202D10E
:1004C0004FF400520BE0594502D14FF4003206E0E0
:1004D000714502D14FF4001201E04FF00072124951
:1004E00008394A6080F82090816A00291AD0BDE856
:1004F000F05F0847082505FA0CF5254212D01B07C6
:1005000010D50B6823F00E030B6090F84010C36BFE
:1005100002FA01F15960826380F8212080F820906E
:10052000016BE2E7BDE8F09F080002401C000240BA
:100530003000024044000240580002406C0002407B
:1005400030B528B308C8134914221944B1FBF2F19D
:100550008900C16310498163022141771A6843F61B
:10056000F0718A43D0E900142143D0E902452C43BD
:100570002143046921434469214384692143114390
:10058000196000214163012242770177084630BD9E
:10059000012030BDF8FFFDBF0000024070B50446E9
:1005A00000F004F90546601C02D0044800780444B9
:1005B00000F0FCF8401BA042FAD370BD0000002000
:1005C0002DE9F84FDFF8B8910024A9F1040B234678
:1005D0000F2709F1040AABF1040EC9E00125A5407B
:1005E0002A40AA427DD1674ED1F804C0ACEB060880
:1005F000B44532D014DCBCF1030F3AD009DCBCF1B5
:10060000000F2AD0BCF1010F1CD0BCF1020F31D178
:100610001DE0BCF1110F17D0BCF1120F2AD119E067
:10062000B8F5881F19D006DCB8F5803F15D0B8F5AD
:10063000801F1FD111E0B8F5001F0ED0B8F5041FC0
:1006400018D10AE0CB6815E0CB681B1D12E0CB681F
:1006500008330FE0CB680C330CE08B682BB1012B17
:100660004FF0080303D0456104E0042302E0056174
:1006700000E00023FF2A01D8064601E000F104064D
:100680004FEA840501D9A5F12005D6F8008007FAC4
:1006900005FC28EA0C0803FA05F548EA0508C6F83F
:1006A00000804D68ED0062D5374DAE6946F0010619
:1006B000AE61AD6924F0030605F001050095334DE8
:1006C00006EB050CDCF80850A607360F07FA06F80B
:1006D00025EA0805DFF8B880404503D14FF000084F
:1006E00017E044E0DFF8AC80404502D14FF001084C
:1006F0000FE0DFF8A480404502D14FF0020808E087
:10070000DFF89880404502D14FF0030801E04FF038
:10071000040808FA06F848EA0508CCF808804D688D
:10072000D9F80060ED024D4601D5164300E096432E
:100730002E604D68DAF80060AD02554601D51643CB
:1007400000E096432E604D68DBF80060AD035D4627
:1007500001D5164300E096432E604D68DEF8006038
:10076000ED03754601D5164300E096432E60641CE8
:100770000D682A46E5407FF431AFBDE8F88F0000F0
:100780000804014000001110001002400000014068
:1007900000080140000C014000100140001401401D
:1007A0000AB1016170470904FBE700000148806855
:1007B000704700000000002070B5040004D094F8D9
:1007C0004100002510B106E0012070BD84F84050C2
:1007D000204601F08DF8242084F841002068C1688B
:1007E00021F40051C160204602F06EF920680169D1
:1007F00021F4904101612068416921F022014161A9
:100800002068416941F0080141612068C16841F4F4
:100810000051C1606564202084F8410084F84200E2
:100820006563002070BD704770472DE9F041016895
:1008300004464A694E6890F83E000025D743FA0501
:100840000BD4F243D20508D46FF4807201254A61BB
:1008500021680A6842F400420A60B90508D4F143ED
:10086000C90505D422686FF4007145F00205516195
:10087000790525D4F143C90522D4638D94F83D1040
:10088000226B202808D13BB9212910D029290ED06C
:10089000282901D1212A0AD022686FF48061516190
:1008A00045F00405102806D0402804D008E0204672
:1008B00001F0C2FC04E02068016841F400710160AD
:1008C000380508D4F043C00505D421686FF40060F2
:1008D00045F008054861002D07D0206C28432064AE
:1008E0002046BDE8F04101F0A7B8BDE8F0812DE950
:1008F000F047026800215368C66A90F83E4090F8BD
:100900003D50102C12D0402C10D0046C002C7DD007
:100910005469E443A6077AD4DE43B60577D4036C62
:1009200003B19169BDE8F04701F062BC9769516974
:100930004FF42A0CC9435FEAC1784FF02A4904D02A
:1009400066452AD04E4528D010E0DE43B6050DD4CA
:10095000C16A614501D1012103E0C16A494501D164
:100960000821C162BDE8F04701F0A8BB0E0716D40C
:10097000DE43B60513D4416CC9B21161416B09B1B4
:10098000896A29B9816B002907D0896A002904D0B6
:100990000068416841F400614160BDE8F0878E075E
:1009A00006D4DE43B60503D4BDE8F04701F0DABA59
:1009B000FE43526876074FEA02521DD4002AECDB50
:1009C0000A0608D4DA43520505D4490705D5BDE81F
:1009D000F04701F06BBA4907DFD4D9438905DCD46D
:1009E000212D05D0402CD8D1BDE8F04701F0ACBB9B
:1009F000BDE8F04701F018BA002ACEDB4A060BD456
:100A0000DA43520508D4490708D501E00DE00EE0AD
:100A1000BDE8F04701F040B94907BED4D943890584
:100A2000BBD4BDE8F04701F0CAB8916970E7E106B0
:100A300006D4D943890503D4BDE8F04701F044BC8E
:100A40002821212D27D0292D25D0650655D4DD4319
:100A50006D0552D4640752D590F83D30448D002C7A
:100A60009BD01269446A2270426A521C4262428DD3
:100A7000521E4285428D002A8FD12A2B8DD10268C9
:100A8000536823F4806353602222026380F83D1090
:100A900000F00AFA81E7250623D4DD436D0520D452
:100AA000640720D590F83D30448D002CF2D0446A84
:100AB00024781461426A521C4262428D521E428561
:100AC000428D002AE6D1292BE4D10268536823F431
:100AD000806353602122026380F83D1000F0E5F945
:100AE0005BE76107D6D4D9438905D3D4418D00296A
:100AF000D0D0416A097811610AE06107CAD4D943AC
:100B00008905C7D4418D0029C4D01169426A11708A
:100B1000416A491C4162418D491E41853DE770474C
:100B200070B5040025D094F83D00002520B984F864
:100B30003C50204600F054F9242084F83D00206801
:100B4000016821F0010101602068016841F4004161
:100B500001602068016821F40041016000F020FB81
:100B60004D4A6168914201D84C4900E04C498842A5
:100B700001D2012070BD4B492368B0FBF1F15E68E2
:100B800026F03F060E435E606368934206D94FF439
:100B9000967359434FF47A73B1FBF3F12368491C00
:100BA0001E6A26F03F06314319626168914210D8EF
:100BB0004900401EB0FBF1F2521CC2F30B02042AA2
:100BC00001D2042022E0B0FBF1F0401CC0F30B0086
:100BD0001CE0A268F2B301EBC10303EB0116431E54
:100BE000B3FBF6F35B1C43F480431B0549D092B37F
:100BF00001EBC10202EB0111401EB0FBF1F0401C01
:100C0000C0F30B0040F4804040F400402168CA6902
:100C10004CF6FF739A431043C861D4E907100143AF
:100C20002068026822F0C00211430160D4E9030188
:100C300001432068826848F2FF339A431143816080
:100C4000D4E9050108432168CA6822F0FF02104375
:100C5000C86001E00EE016E02068016841F0010183
:100C600001602564202084F83D00256384F83E500F
:100C7000002070BD01EB4106431EB3FBF6F35B1C85
:100C8000B3E70120C2E701EB4101401EB0FBF1F0E8
:100C9000401CC0F30B00B7E7A086010080841E0053
:100CA00000093D0040420F00704770477047000048
:100CB0002DE9F84F1F4690468A460446DDF82890F5
:100CC000FFF774FD054694F83D0020287FD11923D5
:100CD000012240492046009501F0D0FB002876D142
:100CE00094F83C00012872D0012084F83C00206870
:100CF0000168C90703D1016841F001010160206862
:100D0000016821F400610160212084F83D00102079
:100D100084F83E0000262664C4F824806785608D30
:100D200020852D48E0622B464A465146204601F078
:100D30002DF890B9206841698069009036E02A4614
:100D40004946204601F040FC50B1206C042804D1F3
:100D50002068016841F4007101600120BDE8F88F4E
:100D6000606A216800780861606A401C6062618D79
:100D7000491E6185218D491E89B2218522685369EA
:100D8000DB435B070BD451B100781061606A401CF3
:100D90006062608D401E6085208D401E20852A4641
:100DA0004946204601F03EFB0028CED1208D002888
:100DB000C5D154F83D0B016841F400710160202059
:100DC00004F81E09E67766770020C7E7FFE70220F0
:100DD000C4E70000020010000000FFFF70477047EA
:100DE00070B586B0002506460095019502950395DD
:100DF00000682749884248D1264CA06940F0080085
:100E0000A061A069694600F0080004904FF44070AA
:100E1000009012200190032003901F48FFF7D0FBA1
:100E20001E48416841F0E06141F002014160E06923
:100E300040F40010E061E0691A4C00F400100490E6
:100E4000174820601020C4E901058020C4E903058B
:100E50004FF440506561C4E906502046FFF770FB2F
:100E600008B1FFF770FA7463002211461F20666212
:100E700000F0AEF81F2000F09DF80022114620205F
:100E800000F0A6F8202000F095F806B070BD000034
:100E90000054004000100240000C014000000140DE
:100EA0006C0002406400002070477047024881686F
:100EB000027811448160704700000020074810B597
:100EC000016841F010010160032000F0A1F80F203B
:100ED00000F006F800F050F8002010BD002002409D
:100EE00030B505461F4887B0C16941F00401C161B2
:100EF000C06906A900F00400009001A800F030F9D4
:100F00000498B0B100F04CF940001749174AB0FB03
:100F1000F1F11748491E0260416040F2E7320021BA
:100F2000C0E903218160816100F046FB040003D029
:100F300015E000F035F9E8E70D4800F097FB0400F4
:100F40000DD11E2000F036F8102D07D200222946C0
:100F50001E2000F03DF80748056000E0012407B0BE
:100F6000204630BD0010024040420F000008004003
:100F700038010020040000200C4808B5816941F0C8
:100F800001018161816901F001010091C16941F0B4
:100F90008051C161C06900F08050009004484168F0
:100FA00021F0E06141F00071416008BD0010024095
:100FB00000000140002809DB00F01F0201219140E0
:100FC0004009800000F1E020C0F8001170470000E7
:100FD000F0B40E4B1B680C46C3F30223C3F10705A4
:100FE000042D00D90425191D072901D2002300E092
:100FF000DB1E012606FA05F1491E214099409E405C
:10100000761E16403143F0BC01F0BBBD0CED00E094
:10101000064900F0070208684FF6FF03184040EA4F
:101020000220034A10430860704700000CED00E006
:101030000000FA052DE9F0470F46050061D0434E48
:10104000306800F00700B84209D2306820F007008D
:1010500038433060306800F00700B84251D128684A
:101060003B4C810712D5400703D5606840F4E0602F
:1010700060602878000703D5606840F460506060C5
:101080006068A96820F0F000084360602878C00715
:1010900028D06868012810D02168022810D089075C
:1010A00000292EDA616821F0030101436160FFF736
:1010B0007DFB804641F288390DE021688903EFE726
:1010C0008901EDE7FFF772FBA0EB0801494502D962
:1010D0000320BDE8F0876068696800F00C00B0EBA1
:1010E000810FEFD1306800F00700B8420BD93068AB
:1010F00020F0070038433060306800F00700B84245
:1011000001D00120E5E72878400705D56068E96847
:1011100020F4E060084360602878000706D5606826
:10112000296920F4605040EAC100606000F058F87E
:101130006168084AC1F30311515CC8400649086060
:1011400006480068FFF7CCFE0020C2E700200240FE
:10115000001002403E2C00080C000020040000207B
:101160000F2202600C4A536803F003034360536884
:1011700003F0F0038360536803F4E063C3605268D4
:101180004FF4E06303EAD20202610448006800F011
:101190000700086070470000001002400020024075
:1011A0000448054900684968044AC1F30221515CBA
:1011B000C84070470C000020001002404E2C000870
:1011C0000448054900684968044AC1F3C221515CDA
:1011D000C84070470C000020001002404E2C000850
:1011E0000E4A51680E4801F00C03042B11D0082B55
:1011F0000FD10C48C1F38343C903C05C0AD55168C1
:10120000084AC1F34041921E515C054A5043B0FB6D
:10121000F1F0704704494843704700000010024055
:1012200000127A002E2C000800093D002DE9F84F2D
:10123000040070D02078C04DC00749D06868C0F362
:101240008100012807D06868C0F38100022809D115
:101250006868C00306D52868800339D5606800280F
:10126000E7D035E06068B0F5803F0BD010B1B0F545
:10127000A02F11D0286820F480302860286820F43E
:10128000802002E0286840F480302860606890B1D7
:10129000FFF78CFA06460AE0286840F480202860B0
:1012A000F0E700BFFFF782FA801B642873D8286834
:1012B0008003F7D50CE0FFF779FA064605E000BF9A
:1012C000FFF774FA801B6428F0D828688003F7D4ED
:1012D00020789A4E80074FF001094FF0000839D569
:1012E000686810F00C0F07D06868C0F3810002280E
:1012F00009D16868C00306D42868800714D520691E
:10130000012808D110E02069B0B1C6F80090FFF7BD
:101310004DFA074605E00AE1FFF748FAC01B02282C
:10132000C4D828688007F7D52868616920F0F800DC
:1013300040EAC10028600DE0C6F80080FFF736FAE9
:10134000074604E0FFF732FAC01B022823D82868BA
:101350008007F7D4207800072CD57948A169D9B146
:10136000C0F80090FFF722FA074604E0FFF71EFAE4
:10137000C01B02280FD8686A8007F7D571484FF460
:10138000FA510068B0FBF1F0009000BF0098411ED8
:101390000091FAD20EE080E0C0F80080FFF706FA74
:1013A000074604E0FFF702FAC01B022875D8686AF6
:1013B0008007F7D42078400760D5E8690027C0008F
:1013C00008D4E86940F08050E861E869012700F03E
:1013D000805000905C480168C90513D401688346B9
:1013E00041F480710160FFF7E1F9824606E000BF39
:1013F000FFF7DCF9A0EB0A0064284ED8DBF8000008
:10140000C005F5D5E06801280AD008B1052813D039
:10141000286A20F001002862286A20F0040002E017
:10142000286A40F001002862E06841F2883B98B1E8
:10143000FFF7BCF982460BE0286A40F004002862FE
:10144000EEE700BFFFF7B2F9A0EB0A0159455AD801
:10145000286A8007F6D50CE0FFF7A8F9824605E078
:10146000FFF7A4F9A0EB0A0159454CD8286A800778
:10147000F6D41FB1E86920F08050E861E06988B3D4
:101480006968C1F38101022944D00228C6F860804E
:1014900004D0FFF78BF9044638E034E0FFF786F913
:1014A000074604E0FFF782F9C01B02282BD8286802
:1014B0008001F7D4206AB0F5803F05D16868A16843
:1014C00020F4003008436860D4E9080108436968E3
:1014D00021F4741108436860C6F86090FFF766F95C
:1014E000044606E025E000BFFFF760F9001B022874
:1014F00009D828688001F7D51BE000BFFFF756F92F
:10150000001B022802D90320BDE8F88F286880015B
:10151000F4D40EE00128F7D06868226A00F4803124
:10152000914204D1616A00F47010884201D0012018
:10153000EAE70020E8E70000001002400000424215
:10154000800442420C000020007000407047704749
:1015500070B590F83C20012A26D0012480F83C4048
:10156000022280F83D2003685A689D6822F07006C8
:101570000A6832435A600D4B02689A4208D0B2F1B1
:10158000804F05D00A4B9A4202D00A4B9A4204D1AE
:10159000496825F080031943916080F83D4000219F
:1015A00080F83C10084670BD022070BD002C014040
:1015B000000400400008004010B5040003D094F877
:1015C0003D0010B107E0012010BD002084F83C0070
:1015D000204600F01FF8022084F83D00211D2068FD
:1015E00001F000FA012084F8460084F83E0084F8F7
:1015F0003F0084F8400084F8410084F8420084F8F9
:10160000430084F8440084F8450084F83D0000203D
:1016100010BD000000B585B000210091019102913C
:10162000039100680E49884217D10E48816941F440
:1016300000618161816901F400610491816941F077
:10164000040181618069694600F0040004904FF450
:10165000805000900448FEF7B3FF05B000BD0000C5
:10166000002C0140001002400008014090F83D109D
:10167000012901D001207047022180F83D10016846
:10168000CA6842F00102CA6000680B49884208D06B
:10169000B0F1804F05D00949884202D008498842FC
:1016A00004D1816801F00701062903D0016841F0E7
:1016B0000101016000207047002C0140000400403F
:1016C0000008004070B5044690F83C000025012851
:1016D00017D0012684F83C60022084F83D00206881
:1016E000826822F0770222F47F42826008685028E4
:1016F00038D00DDC20284FD005DC90B3102811D154
:101700004AE0022070BD302846D040280AD13BE094
:1017100060282FD070280DD0B0F5805F03D0B0F5D1
:10172000005F12D0012584F83D60002084F83C0061
:10173000284670BDCB68D1E90121206801F08EF9FF
:101740002068816841F0770109E0CB68D1E9012187
:10175000206801F083F92068816841F4804181604C
:10176000E1E719E0CA684968206801F089F9502169
:10177000206806E0CA684968206801F092F9602193
:10178000206801F075F9CEE7CA684968206801F061
:1017900077F940212068F4E7226801461046F0E717
:1017A00070472DE9F04104460068C66805694FF0AE
:1017B0000007A90713D5B10711D5F91E0161012052
:1017C0002077206880698007204602D0FFF7E8FF75
:1017D00004E000F07EF8204600F07CF827776807E8
:1017E00016D5700714D521686FF004000861022037
:1017F00020772068806910F4407F204602D0FFF7F0
:10180000CFFF04E000F065F8204600F063F827778A
:10181000280715D5300713D521686FF00800086137
:10182000042020772068C0698007204602D0FFF797
:10183000B7FF04E000F04DF8204600F04BF82777A2
:10184000E80616D5F00614D521686FF0100008617F
:10185000082020772068C06910F4407F204602D01D
:10186000FFF79EFF04E000F034F8204600F032F865
:101870002777E80708D0F00706D021686FF001004D
:101880000861204600F028F8280608D5300606D55D
:1018900021686FF0800008612046FFF757FE680658
:1018A00008D5700606D521686FF040000861204613
:1018B00000F01CF8A8060AD5B00608D521686FF01C
:1018C000200008612046BDE8F041FFF740BEBDE8BA
:1018D000F08170477047000000680349884201D1D9
:1018E000FFF7E4BA704700000008004070470000AE
:1018F00000B585B00021009101910291039100682B
:10190000104988421BD11048816941F480418161AE
:10191000816901F480410491816941F00401816190
:101920008069694600F0040004904FF40070009054
:1019300012200190032003900448FEF741FE05B0F9
:1019400000BD0000003801400010024000080140C6
:10195000FEE700000148FEF768BF0000100000200D
:101960000148FEF7C4BF00001000002038B5406AEF
:10197000002190F83D202B4B46F2A8141B68B3FBC6
:10198000F4F3C3EBC30303EB830300933BB15B1E90
:10199000009303681B689B0505D5009BF6E7036C65
:1019A00043F020030364436B03B19962836B03B17B
:1019B000996203681C6824F480641C604185436B51
:1019C00003B15963836B03B1596303681C6824F046
:1019D00001041C6090F83D402023602C0BD028248B
:1019E00034EA02020FD080F83D3080F83E1000BF8C
:1019F000FFF795F838BD80F83D3080F83E1001645F
:101A0000FEF711FF38BD0268136843F0010313604D
:101A10000268136843F480631360016380F83D40FB
:101A2000E6E700000C00002000684169C943090690
:101A300001D400210161704770B5044690F83D0063
:101A400094F83E10102901D0402906D1222804D153
:101A500021680A6822F400620A60282131EA000243
:101A60004FF000054FF0200626D02168496809058F
:101A700005D4602803D084F83D6084F83E50256387
:101A800020684168090537D5416821F4006141604B
:101A9000606B90F821203C49012A11D04163606BB2
:101AA000FEF754FC38B32068016821F001010160A1
:101AB00084F83D60606B1CE0256384F83D10DFE72F
:101AC000A06B4163A06BFEF741FCA0B120684169A7
:101AD000C943490605D40069616A0870606A401C00
:101AE00060622068016821F00101016084F83D60B6
:101AF000A06B416B884710E094F83D10602910D02E
:101B00004169C943490605D40069616A0870606A81
:101B1000401C60622046FFF702F8206CC1071CD110
:101B200015E084F83D6025644169C943490605D440
:101B30000069616A0870606A401C60622068016820
:101B400021F0010101602046FEF76DFEE5E7810707
:101B500003D4410701D4000704D52068416821F46B
:101B6000E061416094F83D00216C49070BD52828BD
:101B700009D10648E062256384F83D6084F83E5050
:101B80002046FFF791F870BD6D1900080000FFFFB7
:101B900001684A69D24352050FD46FF480624A61EA
:101BA000002140F8301F202242738173026942F005
:101BB000040202610173012070470020704710B5D4
:101BC000C26A438D0168042B06D0438D032B08D0D5
:101BD000438D022B1DD012E04A6822F480624A60D5
:101BE0000CE04B6823F480634B60042A06D0022A81
:101BF00004D001680A6822F480620A6001680969F9
:101C0000426A1170416A491C4162418D491E4185F9
:101C100010BD012A34D0102A32D0042A34D0022A2E
:101C200032D00B6843F400730B6001680969436AA2
:101C30001970416A491C4162438D5B1E43850368EC
:101C40001B690B70416A491C4162418D491E4185E7
:101C500001684B6823F440734B60202180F83D10ED
:101C600090F83E300021402B80F83E1010D0082A1A
:101C700002D0202A00D012210163FFF716F810BD10
:101C80000B6823F48063CFE70B6843F48063CBE7F2
:101C90000163FFF7A3F810BD38B590F83D10222975
:101CA00010D1C36A418D03290DD901680969426ABF
:101CB0001170416A491C4162418D491E4185418D27
:101CC000032906D038BDC26A022A02D0012906D0F3
:101CD00029B10068416821F48061416038BD2A4A19
:101CE00046F2A81400211268B2FBF4F202EB820261
:101CF000009202682024009D6D1E009526D0156874
:101D0000AD05F8D4156825F480651560026855683E
:101D100025F4E065556002681269456A2A70426AD6
:101D2000521C4262428D521E428580F83D4090F81E
:101D30003E2080F83E10402A21D0082B02D0202BD4
:101D400000D012210163FEF7B0FF38BD036C43F0F1
:101D500020030364536823F4E0635360026812694C
:101D6000436A1A70426A521C4262428D521E428578
:101D700080F83D4080F83E10FEF7D1FE38BD01638B
:101D8000FFF72CF838BD00000C000020F8B5044621
:101D9000C06A1E460D461746082807D0012805D000
:101DA00010F5803F02D0206B122804D12068016812
:101DB00041F480710160134600224FF0011120466A
:101DC000009600F05BFB40B120680068C00502D5BA
:101DD0004FF4007020640320F8BD2069B0F5804FF7
:101DE0000ED00620216800EAD51040F0F00008610E
:101DF00033463A460B49204600F088FB78B902E0AA
:101E000005F0FE0000E0E8B22168086105493346AC
:101E10003A46891F204600F079FB0028DCD00120DB
:101E2000F8BD00000800010010B5C26A90F83D102E
:101E300021290BD1418D51B1416A026809781161A4
:101E4000416A491C4162418D491E418510BD2023D4
:101E50000021082A13D0202A11D012F5803F0ED07D
:101E60000268546824F4E06454601122026380F82C
:101E70003E1080F83D3000BFFEF718FF10BD02682D
:101E8000546824F4E06454600268146844F40074F4
:101E90001460016380F83D3090F83E2080F83E10D9
:101EA000402AE9D1FEF79BFF10BD000010B590F865
:101EB0003D1090F83E30C26A048DB4B1212903D0A0
:101EC000402B11D122290FD1418DE1B390F83E1062
:101ED000402942D0416A026809781161416A491C6F
:101EE0004162418D491E418510BD2129E8D1202341
:101EF0000021082A13D0202A11D012F5803F0ED0DD
:101F00000268546824F4E06454601122026380F88B
:101F10003E1080F83D3000BFFEF7C8FE10BD0268DD
:101F2000546824F4E06454600268146844F4007453
:101F30001460016380F83D3090F83E2080F83E1038
:101F4000402AE9D100E002E0FEF749FF10BD006839
:101F5000416821F48061416010BDBDE8104000F08F
:101F6000F3B8000078B590F83E50C26A046B90F860
:101F70003D6000230168222E73D1066D0EB9402DFD
:101F80006FD0056D1DB90569B5F5404F1BD0458D66
:101F900095B3468D484D012E20D0448D022C4DD056
:101FA0000C6844F480640C6001684C68240579D5A1
:101FB000AA4273D0012A71D0082A6FD0102A6DD09E
:101FC000202A6BD06EE04A698A6900920A6842F45E
:101FD00080720A60016D491C016578BDAA4214D166
:101FE0000A6822F480620A6001684A68120504D512
:101FF0000A6822F4806217E0FFE74A698A69009262
:102000000A6842F400720A6050E0082A10D0202AC0
:102010000ED0122C0AD0042A03D0022A01D0102A92
:10202000E6D10A6842F480620A603BE0012ADFD010
:102030000A6822F480620A600168DEE7042A11D08F
:10204000022A0FD0102A0DD00C6844F400640C60F2
:1020500001684C698C6900940C6824F480640C60FD
:1020600008E025E00C6844F480640C6001684C6969
:102070008969009101684C68240517D5AA4207D0E8
:10208000012A05D0082A03D0102A01D0202A0DD118
:102090004A6842F480524A6008E0FFE74A6842F426
:1020A00080524A6001684A6989690091036578BD78
:1020B00048698869009078BD0000FFFF90F83E10E5
:1020C000402910D00169B1F5804F19D0016DA9B335
:1020D000016D012910D1416C5FF0F10201F44071F2
:1020E00042EAD11106E0016D0029416C05D0C9B268
:1020F00041F0010100680161704701F0FE01F9E75C
:1021000090F83D102129416C09D0C9B241F001017C
:1021100002681161416B29B1896A49B902E001F095
:10212000FE01F5E7816B0029E6D0896A0029E3D03A
:102130000068416841F4006141607047FFE7416C0D
:10214000F02201F44071CBE710B590F83D10026D1C
:102150004AB1026D012A14D0026D022A16D0BDE8E0
:102160001040FFF761BCC16C0129816C02D0C1F342
:10217000072108E00268C9B21161016D891C01657F
:1021800010BD816CC9B20268116123E022291CD004
:10219000428D0AB1212920D0428D002AF0D1212977
:1021A000EED101684A6822F4E0624A6001680A6878
:1021B00042F400720A6000210163202280F83D2071
:1021C00080F83E10FEF70BFE10BD01680A6842F46D
:1021D00080720A60016D491CD1E7416A0268097882
:1021E0001161416A491C4162418D491E418510BD02
:1021F00038B50C4690F83D2000212825954302680B
:102200000B4605D051699169009180F83C3038BD8A
:10221000556825F480655560E243540700D50121D7
:10222000120601D5828900E0028B80F83C3092B220
:10223000FEF7FAFA38BD00002DE9F04190F83D3084
:102240000446C26A002120261E4F00686FF4806594
:10225000082A01D0202A01D1282B04D0212B17D005
:102260004561BDE8F081E762426822F4E0624260C5
:10227000206845612068026822F480620260216360
:1022800084F83D6084F83E102046FEF70DFDE8E737
:10229000E7622122226384F83D6084F83E104168A1
:1022A00021F4E0614160206845612068016821F403
:1022B000806101602046FFF7B7FB2046FEF7F5FD81
:1022C000CFE700000000FFFFF8B590F83D6004463E
:1022D0000068416821F4E06141602068002541699F
:1022E0000091016841F0010101602068016821F45A
:1022F0008061016020684168090520D5474F222E82
:1023000048D02A2E46D0616B096849686185618D85
:1023100019B1216C41F004012164416821F400618C
:102320004160606BFEF75EF8012808D0606B476380
:10233000606BFEF70BF810B1606B416B8847608DE6
:1023400008B320684169C943490708D40069616A34
:102350000870606A401C6062608D401E6085206865
:102360004169C943490608D40069616A0870606A16
:10237000401C6062608D401E6085608D18B1206CCD
:1023800040F004002064206C00B32046BDE8F84013
:10239000FFF752BBA16B096849686185618D19B16E
:1023A000216C41F004012164416821F40061416025
:1023B000A06BFEF717F80128C1D0A06B4763A06B94
:1023C000FDF7C4FF0028BAD0A06BB6E72A2E06D1CD
:1023D0002563282084F83D002046FEF765FD94F82B
:1023E0003D10202028290DD0216B222901D0222E3A
:1023F00007D1256384F83D0084F83E502046FEF75F
:1024000053FDF8BD0649E162256384F83D0084F878
:102410003E502046FEF748FCF8BD00006D1900084C
:102420000000FFFF70B516460D4604461EE020462C
:10243000FFF7AEFB08B1012070BD681C16D0FEF797
:10244000B5F9801BA84200D885B920684069C0430F
:1024500040070BD5002044F8300F20216173A07392
:10246000216941F0200121612073E4E7206840697F
:10247000C0434007DBD4002070BD00002DE9F047C9
:10248000984617460D460446C1F30746DDF82090EE
:102490002AE000BFB8F1FF3F26D0FEF787F9A0EB96
:1024A0000901414502D8B8F1000F1DD12068012E65
:1024B00016D0806925EA00000004000C12D000202C
:1024C000B84211D1002044F8300F20216173A0736D
:1024D000216941F02001216120730120BDE8F087CE
:1024E0004069E7E70120EBE72068012E0AD0806908
:1024F00025EA00000004000C06D00020B842C9D034
:102500000020EBE74069F3E70120F7E72DE9F0470A
:10251000984616460D4604464FF000094FF0200A33
:10252000C1F3074723E020684069C043400515D444
:102530002068016841F40071016021686FF48060D7
:102540004861C4F8309084F83DA084F83E90216C36
:1025500041F00401216484F83C9021E0701C06D015
:10256000FEF724F9A0EB0800B04203D816B1012F02
:102570001FD021E02068012F15D0806925EA0000D6
:102580000004000C18D000BF44F8309F84F80DA060
:1025900084F80E90216941F02001216184F80C90AB
:1025A0000120BDE8F087406925EA00000004000C26
:1025B000EAD12068406901E02068806925EA0000CE
:1025C0000004000CAFD1ECE770B516460D4604468A
:1025D0001EE02046FFF7DCFA08B1012070BD681C40
:1025E00016D0FEF7E3F8801BA84200D885B9206812
:1025F0004069C04300060BD5002044F8300F20216D
:102600006173A073216941F0200121612073E4E727
:1026100020684069C0430006DBD4002070BD000084
:10262000094808B5416941F0010141614069002252
:1026300000F00100009011461020FEF7C9FCBDE833
:1026400008401020FEF7B6BC0010024030B585B03F
:10265000002417480094019402940394816941F086
:1026600020018161816901F020010491816941F0BB
:1026700004018161816901F004010491816941F0E3
:102680000801816180690B4D00F00800012204906F
:1026900011462846FEF784F803200121039000919B
:1026A000CDE9011469462846FDF78AFF05B030BD23
:1026B00000100240000801400D4810B50B490160B0
:1026C0000C494FF48042C0E901120021C0E9031215
:1026D00041618161C1610162FEF722FA002803D0E5
:1026E000BDE81040FDF72FBE10BD000000540040B3
:1026F00010000020801A060010B586B000241A4889
:102700000094019402940394049416490594C0E93A
:1027100000144FF6FF71C0E9024104614461846115
:10272000FEF74AFF08B1FDF70EFE4FF4005000908F
:102730008000CDE9010469460B480394FEF7C2FF0F
:1027400008B1FDF700FE049404A907480594FEF7BC
:10275000FFFE08B1FDF7F7FD0348FEF787FF06B05F
:1027600010BD0000002C0140A80000200C4810B54E
:102770000A4901604FF4E131416000218160082283
:10278000C160C0E904128161C161FEF715F800283B
:1027900003D0BDE81040FDF7D6BD10BD00380140A4
:1027A000F0000020FEE7FEE710B5A2B07D216C46E8
:1027B00001A8FDF75DFD0B48802100680090601CBA
:1027C000FDF734FD00240021204600F061F881214E
:1027D000684600F027F8641CE4B2072CF3D922B055
:1027E00010BD0000582C000838B50C46002A15D141
:1027F000012813D90AA109680091FF2101EB4000CB
:10280000C0B207E0214600F043F80221684600F01C
:1028100009F8E8B2421E1546062AF3D938BD000071
:102820004000000008B54FF47A7200920B46024651
:1028300078210248FEF73CFA08BD00001000002095
:1028400000B587B01C220BA16846FDF7BDFC012036
:10285000FDF7A4FEFFF7E4FEFFF72EFF0120FDF7D2
:102860009DFE1A216846FFF7DDFFFFF79DFF07B0C9
:1028700000BD000000AED580A83F2002D30040A1DB
:10288000C8DA1281FFD9F1DB30A4A68D14AF0000A5
:1028900008B5072801D87F2901D9002008BD0022EA
:1028A00040F0B00000928DF8010001F00F008DF8AB
:1028B0000200102040EA11108DF803000421684640
:1028C000FFF7B0FF012008BD2DE9FE430746CE000B
:1028D0004000083E801E15464FF0FF38F1B2C0B2EE
:1028E000FFF7D6FF00282BD0164A6C4607CA8DE8A2
:1028F00007001549012001EB05152918A1F58051A4
:1029000091F8FF1D2154401CC0B20828F5D90921B7
:102910002046FFF787FF01202918A1F5805191F883
:10292000071E2154401CC0B20828F5D908EB470007
:10293000F1B2C0B2FFF7ACFF09216846FFF772FFA2
:10294000BDE8FE8350320008602C00082DE9F041FC
:1029500015460E460746002406E03019C1B2384637
:10296000FFF7B2FF641CE4B22A5D002AF5D1BDE88E
:10297000F08170477047704730B58FB028216846A6
:10298000FDF776FC14210AA8FDF772FC012108046A
:10299000CDE900100024029402250491CDE90750EE
:1029A0004FF4E01009906846FEF740FC08B172B69B
:1029B000FEE70F20CDE90A054FF48060CDE90C4019
:1029C00002210AA80E94FEF735FB002801D072B64A
:1029D000FEE70FB030BD70470148FEF7E2BE0000D1
:1029E00038010020F0B50268194B1A4C1A4D4FF00F
:1029F0008047984205D0B84203D0A04201D0A842F7
:102A000003D122F070064A683243984205D0B8429A
:102A100003D0A04201D0A84203D122F44074CA6876
:102A200022434C6922F08002224302608A68C2621B
:102A30000A688262984201D10969016301214161FA
:102A40000169C90703D0016921F001010161F0BDED
:102A5000002C0140000400400008004010B58468CC
:102A600042EA032224F47F440A432243826010BDD9
:102A7000826822F070020A4342F0070181607047C9
:102A800010B5036A046A24F001040462846924F026
:102A9000F00444EA021423F00A020A438461026249
:102AA00010BD10B5036A046A24F01004046284693E
:102AB00023F0A00324F4704444EA023243EA0111F3
:102AC0008261016210BD000070B5044600680169B2
:102AD000E26821F44051114301612169A068084373
:102AE000616908432168CA6841F20C639A43024352
:102AF000CA6020684169A26921F4407111434161B3
:102B00001E492068884202D1FEF75AFB01E0FEF719
:102B100047FB00EBC00101EB0012606864218000FC
:102B2000B2FBF0F3B3FBF1F36FF018067343B2FBA3
:102B3000F0F5B2FBF0F605EB8305322303EB051548
:102B4000B5FBF1F5B6FBF1F605F0F00505EB061562
:102B5000B2FBF0F6B2FBF0F0B0FBF1F06FF0180250
:102B6000504306EB800003EB0010B0FBF1F021684E
:102B700000F00F002844886070BD0000003801405C
:102B8000FEE70907090E002804DB00F1E02080F8C9
:102B90000014704700F00F0000F1E02080F8141DD1
:102BA00070470000FEF78AF9FFF7E6FEFFF74EFDDB
:102BB000FFF7DCFDFFF7A0FDFFF742FE01210CA2AD
:102BC0000846FFF7C3FE0EA201210220FFF7BEFE5A
:102BD0000EA201210320FFF7B9FE11A2012104205A
:102BE000FFF7B4FE002206210420FFF7FDFDFEE7FB
:102BF00048656C6C6F20576F726C64210000000098
:102C000053544D3332437562654D580050696E2000
:102C10005265757365204578616D706C65000000C4
:102C200042793A203C4E414D453E000001020203EC
:102C30000405060708090A0B0C0D0E0F1010000002
:102C4000000000000000010203040607080900005C
:102C500000000102030400004000000040000000EA
:102C60000000000000000000000000000000000064
:102C7000000000F8000000000000003330000000F9
:102C800000100C06100C0600000000000000000000
:102C900040C07840C0784000043F04043F04040072
:102CA000007088FC08300000001820FF211E000082
:102CB000F008F000E018000000211C031E211E0097
:102CC00000F00888700000001E212324192721101D
:102CD00010160E00000000000000000000000000C0
:102CE000000000E018040200000000071820400067
:102CF00000020418E0000000004020180700000057
:102D0000404080F0804040000202010F01020200BA
:102D1000000000F0000000000101011F010101009E
:102D2000000000000000000080B070000000000003
:102D3000000000000000000000010101010101018C
:102D40000000000000000000003030000000000023
:102D500000000000806018040060180601000000F8
:102D600000E010080810E000000F102020100F00F5
:102D7000001010F8000000000020203F202000007C
:102D800000700808088870000030282422213000D4
:102D900000300888884830000018202020110E00DC
:102DA0000000C02010F8000000070424243F240085
:102DB00000F80888880808000019212020110E005A
:102DC00000E0108888180000000F112020110E006C
:102DD00000380808C83808000000003F0000000064
:102DE0000070880808887000001C222121221C0025
:102DF00000E010080810E0000000312222110F004E
:102E0000000000C0C00000000000003030000000E2
:102E10000000008000000000000080600000000052
:102E2000000080402010080000010204081020006B
:102E300040404040404040000404040404040400B6
:102E4000000810204080000000201008040201004B
:102E5000007048080808F00000000030360100004B
:102E6000C030C828E810E0000718272423140B00FE
:102E70000000C038E0000000203C23020227382078
:102E800008F8888888700000203F202020110E005C
:102E9000C030080808083800071820202010080053
:102EA00008F808080810E000203F202020100F003C
:102EB00008F88888E8081000203F20202320180008
:102EC00008F88888E8081000203F20000300000070
:102ED000C03008080838000007182020221E020011
:102EE00008F808000008F808203F210101213F20D0
:102EF000000808F8080800000020203F20200000FB
:102F000000000808F8080800C08080807F000000EA
:102F100008F888C028180800203F20012638200023
:102F200008F8080000000000203F2020202030008A
:102F300008F8F800F8F80800203F003F003F2000A4
:102F400008F830C00008F808203F200007183F00AC
:102F5000E01008080810E0000F10202020100F00DB
:102F600008F808080808F000203F210101010000CE
:102F7000E01008080810E0000F18242438504F0013
:102F800008F8888888887000203F2000030C3020D3
:102F900000708808080838000038202121221C0011
:102FA000180808F8080818000000203F200000005A
:102FB00008F808000008F808001F202020201F0043
:102FC0000878880000C83808000007380E010000A3
:102FD000F80800F80008F800033C0700073C03006D
:102FE000081868808068180820302C03032C3020D3
:102FF0000838C800C83808000000203F2000000042
:1030000010080808C8380800203826212020180099
:10301000000000FE020202000000007F404040006D
:10302000000C30C000000000000000010638C000A5
:1030300000020202FE000000004040407F0000004D
:103040000000040202020400000000000000000072
:103050000000000000000000808080808080808070
:103060000002020400000000000000000000000058
:1030700000008080808000000019242222223F204E
:1030800008F8008080000000003F112020110E0091
:103090000000008080800000000E11202020110020
:1030A000000000808088F800000E112020103F20D2
:1030B0000000808080800000001F22222222130056
:1030C000008080F0888888180020203F20200000A1
:1030D0000000808080808000006B94949493600056
:1030E00008F8008080800000203F210000203F2061
:1030F00000809898000000000020203F2020000061
:10310000000000809898000000C08080807F000050
:1031100008F8000080808000203F24022D3020002D
:10312000000808F8000000000020203F20200000D8
:103130008080808080808000203F20003F20003FF2
:103140008080008080800000203F210000203F2000
:103150000000808080800000001F202020201F00B1
:10316000808000808000000080FFA12020110E00E0
:103170000000008080808000000E112020A0FF80D1
:10318000808080008080800020203F21200001007E
:1031900000008080808080000033242424241900D3
:1031A000008080E0808000000000001F20200000E0
:1031B0008080000000808000001F202020103F2021
:1031C000808080000080808000010E3008060100B1
:1031D00080800080008080800F300C030C300F0056
:1031E00000808000808080000020312E0E31200081
:1031F000808080000080808080818E7018060100B1
:1032000000808080808080000021302C22213000CE
:1032100000000000807C020200000000003F4040EF
:1032200000000000FF00000000000000FF000000A0
:103230000002027C800000000040403F00000000CF
:10324000000601010202040400000000000000006A
:103250004000000000000000000000007C32000878
:103260000000002010000000280100088C32000837
:1032700010000020D00700004401000801000000F9
:0C328000100000000000000000127A00A6
:04000005080000ED02
:00000001FF
